{
  "_format": "hh-sol-artifact-1",
  "contractName": "IdentityRegistryStorage",
  "sourceName": "contracts/IdentityRegistryStorage.sol",
  "abi": [
    {
      "anonymous": false,
      "inputs": [
        {
          "indexed": true,
          "internalType": "address",
          "name": "_agent",
          "type": "address"
        }
      ],
      "name": "AgentAdded",
      "type": "event"
    },
    {
      "anonymous": false,
      "inputs": [
        {
          "indexed": true,
          "internalType": "address",
          "name": "_agent",
          "type": "address"
        }
      ],
      "name": "AgentRemoved",
      "type": "event"
    },
    {
      "anonymous": false,
      "inputs": [
        {
          "indexed": true,
          "internalType": "address",
          "name": "investorAddress",
          "type": "address"
        },
        {
          "indexed": true,
          "internalType": "uint16",
          "name": "country",
          "type": "uint16"
        }
      ],
      "name": "CountryModified",
      "type": "event"
    },
    {
      "anonymous": false,
      "inputs": [
        {
          "indexed": true,
          "internalType": "contract IIdentity",
          "name": "oldIdentity",
          "type": "address"
        },
        {
          "indexed": true,
          "internalType": "contract IIdentity",
          "name": "newIdentity",
          "type": "address"
        }
      ],
      "name": "IdentityModified",
      "type": "event"
    },
    {
      "anonymous": false,
      "inputs": [
        {
          "indexed": true,
          "internalType": "address",
          "name": "identityRegistry",
          "type": "address"
        }
      ],
      "name": "IdentityRegistryBound",
      "type": "event"
    },
    {
      "anonymous": false,
      "inputs": [
        {
          "indexed": true,
          "internalType": "address",
          "name": "identityRegistry",
          "type": "address"
        }
      ],
      "name": "IdentityRegistryUnbound",
      "type": "event"
    },
    {
      "anonymous": false,
      "inputs": [
        {
          "indexed": true,
          "internalType": "address",
          "name": "investorAddress",
          "type": "address"
        },
        {
          "indexed": true,
          "internalType": "contract IIdentity",
          "name": "identity",
          "type": "address"
        }
      ],
      "name": "IdentityStored",
      "type": "event"
    },
    {
      "anonymous": false,
      "inputs": [
        {
          "indexed": true,
          "internalType": "address",
          "name": "investorAddress",
          "type": "address"
        },
        {
          "indexed": true,
          "internalType": "contract IIdentity",
          "name": "identity",
          "type": "address"
        }
      ],
      "name": "IdentityUnstored",
      "type": "event"
    },
    {
      "anonymous": false,
      "inputs": [
        {
          "indexed": false,
          "internalType": "uint8",
          "name": "version",
          "type": "uint8"
        }
      ],
      "name": "Initialized",
      "type": "event"
    },
    {
      "anonymous": false,
      "inputs": [
        {
          "indexed": true,
          "internalType": "address",
          "name": "previousOwner",
          "type": "address"
        },
        {
          "indexed": true,
          "internalType": "address",
          "name": "newOwner",
          "type": "address"
        }
      ],
      "name": "OwnershipTransferred",
      "type": "event"
    },
    {
      "inputs": [
        {
          "internalType": "address",
          "name": "_agent",
          "type": "address"
        }
      ],
      "name": "addAgent",
      "outputs": [],
      "stateMutability": "nonpayable",
      "type": "function"
    },
    {
      "inputs": [
        {
          "internalType": "address",
          "name": "_userAddress",
          "type": "address"
        },
        {
          "internalType": "contract IIdentity",
          "name": "_identity",
          "type": "address"
        },
        {
          "internalType": "uint16",
          "name": "_country",
          "type": "uint16"
        }
      ],
      "name": "addIdentityToStorage",
      "outputs": [],
      "stateMutability": "nonpayable",
      "type": "function"
    },
    {
      "inputs": [
        {
          "internalType": "address",
          "name": "_identityRegistry",
          "type": "address"
        }
      ],
      "name": "bindIdentityRegistry",
      "outputs": [],
      "stateMutability": "nonpayable",
      "type": "function"
    },
    {
      "inputs": [],
      "name": "init",
      "outputs": [],
      "stateMutability": "nonpayable",
      "type": "function"
    },
    {
      "inputs": [
        {
          "internalType": "address",
          "name": "_agent",
          "type": "address"
        }
      ],
      "name": "isAgent",
      "outputs": [
        {
          "internalType": "bool",
          "name": "",
          "type": "bool"
        }
      ],
      "stateMutability": "view",
      "type": "function"
    },
    {
      "inputs": [],
      "name": "linkedIdentityRegistries",
      "outputs": [
        {
          "internalType": "address[]",
          "name": "",
          "type": "address[]"
        }
      ],
      "stateMutability": "view",
      "type": "function"
    },
    {
      "inputs": [
        {
          "internalType": "address",
          "name": "_userAddress",
          "type": "address"
        },
        {
          "internalType": "contract IIdentity",
          "name": "_identity",
          "type": "address"
        }
      ],
      "name": "modifyStoredIdentity",
      "outputs": [],
      "stateMutability": "nonpayable",
      "type": "function"
    },
    {
      "inputs": [
        {
          "internalType": "address",
          "name": "_userAddress",
          "type": "address"
        },
        {
          "internalType": "uint16",
          "name": "_country",
          "type": "uint16"
        }
      ],
      "name": "modifyStoredInvestorCountry",
      "outputs": [],
      "stateMutability": "nonpayable",
      "type": "function"
    },
    {
      "inputs": [],
      "name": "owner",
      "outputs": [
        {
          "internalType": "address",
          "name": "",
          "type": "address"
        }
      ],
      "stateMutability": "view",
      "type": "function"
    },
    {
      "inputs": [
        {
          "internalType": "address",
          "name": "_agent",
          "type": "address"
        }
      ],
      "name": "removeAgent",
      "outputs": [],
      "stateMutability": "nonpayable",
      "type": "function"
    },
    {
      "inputs": [
        {
          "internalType": "address",
          "name": "_userAddress",
          "type": "address"
        }
      ],
      "name": "removeIdentityFromStorage",
      "outputs": [],
      "stateMutability": "nonpayable",
      "type": "function"
    },
    {
      "inputs": [],
      "name": "renounceOwnership",
      "outputs": [],
      "stateMutability": "nonpayable",
      "type": "function"
    },
    {
      "inputs": [
        {
          "internalType": "address",
          "name": "_userAddress",
          "type": "address"
        }
      ],
      "name": "storedIdentity",
      "outputs": [
        {
          "internalType": "contract IIdentity",
          "name": "",
          "type": "address"
        }
      ],
      "stateMutability": "view",
      "type": "function"
    },
    {
      "inputs": [
        {
          "internalType": "address",
          "name": "_userAddress",
          "type": "address"
        }
      ],
      "name": "storedInvestorCountry",
      "outputs": [
        {
          "internalType": "uint16",
          "name": "",
          "type": "uint16"
        }
      ],
      "stateMutability": "view",
      "type": "function"
    },
    {
      "inputs": [
        {
          "internalType": "address",
          "name": "newOwner",
          "type": "address"
        }
      ],
      "name": "transferOwnership",
      "outputs": [],
      "stateMutability": "nonpayable",
      "type": "function"
    },
    {
      "inputs": [
        {
          "internalType": "address",
          "name": "_identityRegistry",
          "type": "address"
        }
      ],
      "name": "unbindIdentityRegistry",
      "outputs": [],
      "stateMutability": "nonpayable",
      "type": "function"
    }
  ],
  "bytecode": "0x608060405234801561001057600080fd5b506111b6806100206000396000f3fe608060405234801561001057600080fd5b50600436106101005760003560e01c806397a6278e11610097578063cf191bcd11610066578063cf191bcd1461025a578063e1c7392a1461026d578063e805cf8614610275578063f2fde38b1461028857600080fd5b806397a6278e1461020c5780639f3418d51461021f578063a53410dd14610232578063bf9eb9591461024557600080fd5b80637988d3a5116100d35780637988d3a51461019157806384e79842146101d55780638da5cb5b146101e857806397a012f7146101f957600080fd5b80631ffbb06414610105578063690a49f91461012d578063715018a614610142578063727e13bc1461014a575b600080fd5b610118610113366004610ed5565b61029b565b60405190151581526020015b60405180910390f35b61014061013b366004610ed5565b6102ae565b005b6101406103bf565b61017e610158366004610ed5565b6001600160a01b0316600090815260666020526040902054600160a01b900461ffff1690565b60405161ffff9091168152602001610124565b6101bd61019f366004610ed5565b6001600160a01b039081166000908152606660205260409020541690565b6040516001600160a01b039091168152602001610124565b6101406101e3366004610ed5565b6103d3565b6033546001600160a01b03166101bd565b610140610207366004610ed5565b610443565b61014061021a366004610ed5565b610600565b61014061022d366004610f10565b610670565b610140610240366004610f45565b610755565b61024d61087b565b6040516101249190610f8c565b610140610268366004610ed5565b6108dd565b6101406109b8565b610140610283366004610fd9565b610ac9565b610140610296366004610ed5565b610bc3565b60006102a8606583610c39565b92915050565b6001600160a01b0381166102dd5760405162461bcd60e51b81526004016102d490611012565b60405180910390fd5b60675461012c1161033e5760405162461bcd60e51b815260206004820152602560248201527f63616e6e6f742062696e64206d6f7265207468616e2033303020495220746f20604482015264312049525360d81b60648201526084016102d4565b610347816103d3565b6067805460018101825560009182527f9787eeb91fe3101235e4a76063c7023ecb40f923f97916639c598592fa30d6ae0180546001600160a01b0319166001600160a01b03841690811790915560405190917f500c250171aa20e861b680f93502547b9d436eda7d4c537fc360db6e0c6eedfb91a250565b6103c7610cbc565b6103d16000610d16565b565b6103db610cbc565b6001600160a01b0381166104015760405162461bcd60e51b81526004016102d490611012565b61040c606582610d68565b6040516001600160a01b038216907ff68e73cec97f2d70aa641fb26e87a4383686e2efacb648f2165aeb02ac562ec590600090a250565b6001600160a01b0381166104695760405162461bcd60e51b81526004016102d490611012565b6067546104b85760405162461bcd60e51b815260206004820152601f60248201527f6964656e74697479207265676973747279206973206e6f742073746f7265640060448201526064016102d4565b60675460005b818110156105be57826001600160a01b0316606782815481106104e3576104e3611049565b6000918252602090912001546001600160a01b0316036105ac57606761050a600184611075565b8154811061051a5761051a611049565b600091825260209091200154606780546001600160a01b03909216918390811061054657610546611049565b9060005260206000200160006101000a8154816001600160a01b0302191690836001600160a01b03160217905550606780548061058557610585611088565b600082815260209020810160001990810180546001600160a01b03191690550190556105be565b806105b68161109e565b9150506104be565b506105c882610600565b6040516001600160a01b038316907f51f353eb5801583fdf2706e43c045b62fdf6b1566820b349390616363ecf72c990600090a25050565b610608610cbc565b6001600160a01b03811661062e5760405162461bcd60e51b81526004016102d490611012565b610639606582610de4565b6040516001600160a01b038216907fed9c8ad8d5a0a66898ea49d2956929c93ae2e8bd50281b2ed897c5d1a6737e0b90600090a250565b6106793361029b565b6106955760405162461bcd60e51b81526004016102d4906110b7565b6001600160a01b0382166106bb5760405162461bcd60e51b81526004016102d490611012565b6001600160a01b03828116600090815260666020526040902054166106f25760405162461bcd60e51b81526004016102d490611105565b6001600160a01b038216600081815260666020526040808220805461ffff60a01b1916600160a01b61ffff87169081029190911790915590519092917f20965fcdc6eed7ae398065b40ece4e732ba667992ca819fc54e80e9f2047c4cf91a35050565b61075e3361029b565b61077a5760405162461bcd60e51b81526004016102d4906110b7565b6001600160a01b0383161580159061079a57506001600160a01b03821615155b6107b65760405162461bcd60e51b81526004016102d490611012565b6001600160a01b0383811660009081526066602052604090205416156108175760405162461bcd60e51b8152602060048201526016602482015275616464726573732073746f72656420616c726561647960501b60448201526064016102d4565b6001600160a01b0383811660008181526066602052604080822080549487166001600160b01b03199095168517600160a01b61ffff881602179055517e30dea7e9c9afaa2e3c9810f2fc9b5181f1bad74ca5a8db85f746a33585e7479190a3505050565b606060678054806020026020016040519081016040528092919081815260200182805480156108d357602002820191906000526020600020905b81546001600160a01b031681526001909101906020018083116108b5575b5050505050905090565b6108e63361029b565b6109025760405162461bcd60e51b81526004016102d4906110b7565b6001600160a01b0381166109285760405162461bcd60e51b81526004016102d490611012565b6001600160a01b038181166000908152606660205260409020541661095f5760405162461bcd60e51b81526004016102d490611105565b6001600160a01b0380821660008181526066602052604080822080546001600160b01b0319811690915590519316928392917fca6a4c3370b859312246e7f086284076e557997e10d856b716c23ab67067790b91a35050565b600054610100900460ff16158080156109d85750600054600160ff909116105b806109f25750303b1580156109f2575060005460ff166001145b610a555760405162461bcd60e51b815260206004820152602e60248201527f496e697469616c697a61626c653a20636f6e747261637420697320616c72656160448201526d191e481a5b9a5d1a585b1a5e995960921b60648201526084016102d4565b6000805460ff191660011790558015610a78576000805461ff0019166101001790555b610a80610e66565b8015610ac6576000805461ff0019169055604051600181527f7f26b83ff96e1f2b6a682f133852f6798a09c465da95921460cefb38474024989060200160405180910390a15b50565b610ad23361029b565b610aee5760405162461bcd60e51b81526004016102d4906110b7565b6001600160a01b03821615801590610b0e57506001600160a01b03811615155b610b2a5760405162461bcd60e51b81526004016102d490611012565b6001600160a01b0382811660009081526066602052604090205416610b615760405162461bcd60e51b81526004016102d490611105565b6001600160a01b0380831660009081526066602052604080822080548585166001600160a01b031982168117909255915191909316929183917f556ce885dfcea52155c773f1ed2e58781c51945c13030ab8f793c61f51d1b8089190a3505050565b610bcb610cbc565b6001600160a01b038116610c305760405162461bcd60e51b815260206004820152602660248201527f4f776e61626c653a206e6577206f776e657220697320746865207a65726f206160448201526564647265737360d01b60648201526084016102d4565b610ac681610d16565b60006001600160a01b038216610c9c5760405162461bcd60e51b815260206004820152602260248201527f526f6c65733a206163636f756e7420697320746865207a65726f206164647265604482015261737360f01b60648201526084016102d4565b506001600160a01b03166000908152602091909152604090205460ff1690565b6033546001600160a01b031633146103d15760405162461bcd60e51b815260206004820181905260248201527f4f776e61626c653a2063616c6c6572206973206e6f7420746865206f776e657260448201526064016102d4565b603380546001600160a01b038381166001600160a01b0319831681179093556040519116919082907f8be0079c531659141344cd1fd0a4f28419497f9722a3daafe3b4186f6b6457e090600090a35050565b610d728282610c39565b15610dbf5760405162461bcd60e51b815260206004820152601f60248201527f526f6c65733a206163636f756e7420616c72656164792068617320726f6c650060448201526064016102d4565b6001600160a01b0316600090815260209190915260409020805460ff19166001179055565b610dee8282610c39565b610e445760405162461bcd60e51b815260206004820152602160248201527f526f6c65733a206163636f756e7420646f6573206e6f74206861766520726f6c6044820152606560f81b60648201526084016102d4565b6001600160a01b0316600090815260209190915260409020805460ff19169055565b600054610100900460ff16610e8d5760405162461bcd60e51b81526004016102d490611135565b6103d1600054610100900460ff16610eb75760405162461bcd60e51b81526004016102d490611135565b6103d133610d16565b6001600160a01b0381168114610ac657600080fd5b600060208284031215610ee757600080fd5b8135610ef281610ec0565b9392505050565b803561ffff81168114610f0b57600080fd5b919050565b60008060408385031215610f2357600080fd5b8235610f2e81610ec0565b9150610f3c60208401610ef9565b90509250929050565b600080600060608486031215610f5a57600080fd5b8335610f6581610ec0565b92506020840135610f7581610ec0565b9150610f8360408501610ef9565b90509250925092565b6020808252825182820181905260009190848201906040850190845b81811015610fcd5783516001600160a01b031683529284019291840191600101610fa8565b50909695505050505050565b60008060408385031215610fec57600080fd5b8235610ff781610ec0565b9150602083013561100781610ec0565b809150509250929050565b6020808252601f908201527f696e76616c696420617267756d656e74202d207a65726f206164647265737300604082015260600190565b634e487b7160e01b600052603260045260246000fd5b634e487b7160e01b600052601160045260246000fd5b818103818111156102a8576102a861105f565b634e487b7160e01b600052603160045260246000fd5b6000600182016110b0576110b061105f565b5060010190565b6020808252602e908201527f4167656e74526f6c653a2063616c6c657220646f6573206e6f7420686176652060408201526d746865204167656e7420726f6c6560901b606082015260800190565b6020808252601690820152751859191c995cdcc81b9bdd081cdd1bdc9959081e595d60521b604082015260600190565b6020808252602b908201527f496e697469616c697a61626c653a20636f6e7472616374206973206e6f74206960408201526a6e697469616c697a696e6760a81b60608201526080019056fea2646970667358221220ab76d335f6bd0adb47f85f36f0233e42a905bd6adde1a6629cd312a2e317e33464736f6c63430008110033",
  "linkReferences": {},
  "deployedLinkReferences": {}
}